{
  "_format": "hh-sol-artifact-1",
  "contractName": "SupplyChainTracking",
  "sourceName": "contracts/SupplyChainTracking.sol",
  "abi": [
    {
      "anonymous": false,
      "inputs": [
        {
          "indexed": false,
          "internalType": "uint256",
          "name": "productId",
          "type": "uint256"
        },
        {
          "indexed": false,
          "internalType": "string",
          "name": "name",
          "type": "string"
        },
        {
          "indexed": false,
          "internalType": "address",
          "name": "manufacturer",
          "type": "address"
        }
      ],
      "name": "ProductAdded",
      "type": "event"
    },
    {
      "anonymous": false,
      "inputs": [
        {
          "indexed": false,
          "internalType": "uint256",
          "name": "productId",
          "type": "uint256"
        },
        {
          "indexed": false,
          "internalType": "string",
          "name": "newLocation",
          "type": "string"
        },
        {
          "indexed": false,
          "internalType": "string",
          "name": "status",
          "type": "string"
        },
        {
          "indexed": false,
          "internalType": "address",
          "name": "transferredBy",
          "type": "address"
        }
      ],
      "name": "ProductTransferred",
      "type": "event"
    },
    {
      "inputs": [
        {
          "internalType": "string",
          "name": "_name",
          "type": "string"
        },
        {
          "internalType": "string",
          "name": "_initialLocation",
          "type": "string"
        }
      ],
      "name": "addProduct",
      "outputs": [],
      "stateMutability": "nonpayable",
      "type": "function"
    },
    {
      "inputs": [
        {
          "internalType": "uint256",
          "name": "_productId",
          "type": "uint256"
        }
      ],
      "name": "getProduct",
      "outputs": [
        {
          "internalType": "string",
          "name": "",
          "type": "string"
        },
        {
          "internalType": "uint256",
          "name": "",
          "type": "uint256"
        },
        {
          "internalType": "address",
          "name": "",
          "type": "address"
        },
        {
          "internalType": "string",
          "name": "",
          "type": "string"
        },
        {
          "internalType": "string",
          "name": "",
          "type": "string"
        }
      ],
      "stateMutability": "view",
      "type": "function"
    },
    {
      "inputs": [],
      "name": "productCount",
      "outputs": [
        {
          "internalType": "uint256",
          "name": "",
          "type": "uint256"
        }
      ],
      "stateMutability": "view",
      "type": "function"
    },
    {
      "inputs": [
        {
          "internalType": "uint256",
          "name": "",
          "type": "uint256"
        }
      ],
      "name": "products",
      "outputs": [
        {
          "internalType": "string",
          "name": "name",
          "type": "string"
        },
        {
          "internalType": "uint256",
          "name": "productId",
          "type": "uint256"
        },
        {
          "internalType": "address",
          "name": "manufacturer",
          "type": "address"
        },
        {
          "internalType": "string",
          "name": "currentLocation",
          "type": "string"
        },
        {
          "internalType": "string",
          "name": "status",
          "type": "string"
        }
      ],
      "stateMutability": "view",
      "type": "function"
    },
    {
      "inputs": [
        {
          "internalType": "uint256",
          "name": "_productId",
          "type": "uint256"
        },
        {
          "internalType": "string",
          "name": "_newLocation",
          "type": "string"
        },
        {
          "internalType": "string",
          "name": "_status",
          "type": "string"
        }
      ],
      "name": "updateLocation",
      "outputs": [],
      "stateMutability": "nonpayable",
      "type": "function"
    }
  ],
  "bytecode": "0x608060405234801561000f575f80fd5b5061133d8061001d5f395ff3fe608060405234801561000f575f80fd5b5060043610610055575f3560e01c80637acc0b2014610059578063b74728851461008d578063b9db15b4146100a9578063ca2efb55146100dd578063e0f6ef87146100f9575b5f80fd5b610073600480360381019061006e919061093f565b610117565b604051610084959493929190610a42565b60405180910390f35b6100a760048036038101906100a29190610bd4565b6102f9565b005b6100c360048036038101906100be919061093f565b61044f565b6040516100d4959493929190610a42565b60405180910390f35b6100f760048036038101906100f29190610c5c565b6106fe565b005b6101016108f5565b60405161010e9190610cd2565b60405180910390f35b5f602052805f5260405f205f91509050805f01805461013590610d18565b80601f016020809104026020016040519081016040528092919081815260200182805461016190610d18565b80156101ac5780601f10610183576101008083540402835291602001916101ac565b820191905f5260205f20905b81548152906001019060200180831161018f57829003601f168201915b505050505090806001015490806002015f9054906101000a900473ffffffffffffffffffffffffffffffffffffffff16908060030180546101ec90610d18565b80601f016020809104026020016040519081016040528092919081815260200182805461021890610d18565b80156102635780601f1061023a57610100808354040283529160200191610263565b820191905f5260205f20905b81548152906001019060200180831161024657829003601f168201915b50505050509080600401805461027890610d18565b80601f01602080910402602001604051908101604052809291908181526020018280546102a490610d18565b80156102ef5780601f106102c6576101008083540402835291602001916102ef565b820191905f5260205f20905b8154815290600101906020018083116102d257829003601f168201915b5050505050905085565b5f8311801561030a57506001548311155b610349576040517f08c379a000000000000000000000000000000000000000000000000000000000815260040161034090610d92565b60405180910390fd5b5f805f8581526020019081526020015f2090508280519060200120816003016040516103759190610e4c565b60405180910390201415806103a9575081805190602001208160040160405161039e9190610e4c565b604051809103902014155b6103e8576040517f08c379a00000000000000000000000000000000000000000000000000000000081526004016103df90610eac565b60405180910390fd5b828160030190816103f99190611067565b508181600401908161040b9190611067565b507f9dc897d1baa9defd60f43d6be2f0b8a3ae8cd2eea726dd9de5a938e975676934848484336040516104419493929190611136565b60405180910390a150505050565b60605f806060805f8611801561046757506001548611155b6104a6576040517f08c379a000000000000000000000000000000000000000000000000000000000815260040161049d90610d92565b60405180910390fd5b5f805f8881526020019081526020015f206040518060a00160405290815f820180546104d190610d18565b80601f01602080910402602001604051908101604052809291908181526020018280546104fd90610d18565b80156105485780601f1061051f57610100808354040283529160200191610548565b820191905f5260205f20905b81548152906001019060200180831161052b57829003601f168201915b5050505050815260200160018201548152602001600282015f9054906101000a900473ffffffffffffffffffffffffffffffffffffffff1673ffffffffffffffffffffffffffffffffffffffff1673ffffffffffffffffffffffffffffffffffffffff1681526020016003820180546105c090610d18565b80601f01602080910402602001604051908101604052809291908181526020018280546105ec90610d18565b80156106375780601f1061060e57610100808354040283529160200191610637565b820191905f5260205f20905b81548152906001019060200180831161061a57829003601f168201915b5050505050815260200160048201805461065090610d18565b80601f016020809104026020016040519081016040528092919081815260200182805461067c90610d18565b80156106c75780601f1061069e576101008083540402835291602001916106c7565b820191905f5260205f20905b8154815290600101906020018083116106aa57829003601f168201915b5050505050815250509050805f01518160200151826040015183606001518460800151955095509550955095505091939590929450565b5f825111610741576040517f08c379a0000000000000000000000000000000000000000000000000000000008152600401610738906111d1565b60405180910390fd5b5f815111610784576040517f08c379a000000000000000000000000000000000000000000000000000000000815260040161077b90611239565b60405180910390fd5b60015f81548092919061079690611284565b91905055506040518060a0016040528083815260200160015481526020013373ffffffffffffffffffffffffffffffffffffffff1681526020018281526020016040518060400160405280600c81526020017f4d616e75666163747572656400000000000000000000000000000000000000008152508152505f8060015481526020019081526020015f205f820151815f0190816108349190611067565b50602082015181600101556040820151816002015f6101000a81548173ffffffffffffffffffffffffffffffffffffffff021916908373ffffffffffffffffffffffffffffffffffffffff160217905550606082015181600301908161089a9190611067565b5060808201518160040190816108b09190611067565b509050507f8193aac6f424277fc758106db15a98f50eaf850bfd0b9178fbfa308e153b049560015483336040516108e9939291906112cb565b60405180910390a15050565b60015481565b5f604051905090565b5f80fd5b5f80fd5b5f819050919050565b61091e8161090c565b8114610928575f80fd5b50565b5f8135905061093981610915565b92915050565b5f6020828403121561095457610953610904565b5b5f6109618482850161092b565b91505092915050565b5f81519050919050565b5f82825260208201905092915050565b5f5b838110156109a1578082015181840152602081019050610986565b5f8484015250505050565b5f601f19601f8301169050919050565b5f6109c68261096a565b6109d08185610974565b93506109e0818560208601610984565b6109e9816109ac565b840191505092915050565b6109fd8161090c565b82525050565b5f73ffffffffffffffffffffffffffffffffffffffff82169050919050565b5f610a2c82610a03565b9050919050565b610a3c81610a22565b82525050565b5f60a0820190508181035f830152610a5a81886109bc565b9050610a6960208301876109f4565b610a766040830186610a33565b8181036060830152610a8881856109bc565b90508181036080830152610a9c81846109bc565b90509695505050505050565b5f80fd5b5f80fd5b7f4e487b71000000000000000000000000000000000000000000000000000000005f52604160045260245ffd5b610ae6826109ac565b810181811067ffffffffffffffff82111715610b0557610b04610ab0565b5b80604052505050565b5f610b176108fb565b9050610b238282610add565b919050565b5f67ffffffffffffffff821115610b4257610b41610ab0565b5b610b4b826109ac565b9050602081019050919050565b828183375f83830152505050565b5f610b78610b7384610b28565b610b0e565b905082815260208101848484011115610b9457610b93610aac565b5b610b9f848285610b58565b509392505050565b5f82601f830112610bbb57610bba610aa8565b5b8135610bcb848260208601610b66565b91505092915050565b5f805f60608486031215610beb57610bea610904565b5b5f610bf88682870161092b565b935050602084013567ffffffffffffffff811115610c1957610c18610908565b5b610c2586828701610ba7565b925050604084013567ffffffffffffffff811115610c4657610c45610908565b5b610c5286828701610ba7565b9150509250925092565b5f8060408385031215610c7257610c71610904565b5b5f83013567ffffffffffffffff811115610c8f57610c8e610908565b5b610c9b85828601610ba7565b925050602083013567ffffffffffffffff811115610cbc57610cbb610908565b5b610cc885828601610ba7565b9150509250929050565b5f602082019050610ce55f8301846109f4565b92915050565b7f4e487b71000000000000000000000000000000000000000000000000000000005f52602260045260245ffd5b5f6002820490506001821680610d2f57607f821691505b602082108103610d4257610d41610ceb565b5b50919050565b7f50726f6475637420646f6573206e6f74206578697374000000000000000000005f82015250565b5f610d7c601683610974565b9150610d8782610d48565b602082019050919050565b5f6020820190508181035f830152610da981610d70565b9050919050565b5f81905092915050565b5f819050815f5260205f209050919050565b5f8154610dd881610d18565b610de28186610db0565b9450600182165f8114610dfc5760018114610e1157610e43565b60ff1983168652811515820286019350610e43565b610e1a85610dba565b5f5b83811015610e3b57815481890152600182019150602081019050610e1c565b838801955050505b50505092915050565b5f610e578284610dcc565b915081905092915050565b7f43616e6e6f742072657665727420746f2070726576696f7573207374617465005f82015250565b5f610e96601f83610974565b9150610ea182610e62565b602082019050919050565b5f6020820190508181035f830152610ec381610e8a565b9050919050565b5f819050815f5260205f209050919050565b5f6020601f8301049050919050565b5f82821b905092915050565b5f60088302610f267fffffffffffffffffffffffffffffffffffffffffffffffffffffffffffffffff82610eeb565b610f308683610eeb565b95508019841693508086168417925050509392505050565b5f819050919050565b5f610f6b610f66610f618461090c565b610f48565b61090c565b9050919050565b5f819050919050565b610f8483610f51565b610f98610f9082610f72565b848454610ef7565b825550505050565b5f90565b610fac610fa0565b610fb7818484610f7b565b505050565b5b81811015610fda57610fcf5f82610fa4565b600181019050610fbd565b5050565b601f82111561101f57610ff081610eca565b610ff984610edc565b81016020851015611008578190505b61101c61101485610edc565b830182610fbc565b50505b505050565b5f82821c905092915050565b5f61103f5f1984600802611024565b1980831691505092915050565b5f6110578383611030565b9150826002028217905092915050565b6110708261096a565b67ffffffffffffffff81111561108957611088610ab0565b5b6110938254610d18565b61109e828285610fde565b5f60209050601f8311600181146110cf575f84156110bd578287015190505b6110c7858261104c565b86555061112e565b601f1984166110dd86610eca565b5f5b82811015611104578489015182556001820191506020850194506020810190506110df565b86831015611121578489015161111d601f891682611030565b8355505b6001600288020188555050505b505050505050565b5f6080820190506111495f8301876109f4565b818103602083015261115b81866109bc565b9050818103604083015261116f81856109bc565b905061117e6060830184610a33565b95945050505050565b7f496e76616c69642070726f64756374206e616d650000000000000000000000005f82015250565b5f6111bb601483610974565b91506111c682611187565b602082019050919050565b5f6020820190508181035f8301526111e8816111af565b9050919050565b7f496e76616c6964206c6f636174696f6e000000000000000000000000000000005f82015250565b5f611223601083610974565b915061122e826111ef565b602082019050919050565b5f6020820190508181035f83015261125081611217565b9050919050565b7f4e487b71000000000000000000000000000000000000000000000000000000005f52601160045260245ffd5b5f61128e8261090c565b91507fffffffffffffffffffffffffffffffffffffffffffffffffffffffffffffffff82036112c0576112bf611257565b5b600182019050919050565b5f6060820190506112de5f8301866109f4565b81810360208301526112f081856109bc565b90506112ff6040830184610a33565b94935050505056fea2646970667358221220be8432d55592031a14d4cc48f11c0d7829a2d5d36f52fbe685e8779ab7735f3264736f6c63430008180033",
  "linkReferences": {},
  "deployedLinkReferences": {}
}