{
  "_format": "hh-sol-artifact-1",
  "contractName": "SupplyChainTracking",
  "sourceName": "contracts/SupplyChainTracking.sol",
  "abi": [
    {
      "anonymous": false,
      "inputs": [
        {
          "indexed": false,
          "internalType": "uint256",
          "name": "productId",
          "type": "uint256"
        },
        {
          "indexed": false,
          "internalType": "string",
          "name": "name",
          "type": "string"
        },
        {
          "indexed": false,
          "internalType": "address",
          "name": "manufacturer",
          "type": "address"
        }
      ],
      "name": "ProductAdded",
      "type": "event"
    },
    {
      "anonymous": false,
      "inputs": [
        {
          "indexed": false,
          "internalType": "uint256",
          "name": "productId",
          "type": "uint256"
        },
        {
          "indexed": false,
          "internalType": "string",
          "name": "newLocation",
          "type": "string"
        },
        {
          "indexed": false,
          "internalType": "string",
          "name": "status",
          "type": "string"
        },
        {
          "indexed": false,
          "internalType": "address",
          "name": "transferredBy",
          "type": "address"
        }
      ],
      "name": "ProductTransferred",
      "type": "event"
    },
    {
      "inputs": [
        {
          "internalType": "string",
          "name": "_name",
          "type": "string"
        },
        {
          "internalType": "string",
          "name": "_initialLocation",
          "type": "string"
        }
      ],
      "name": "addProduct",
      "outputs": [],
      "stateMutability": "nonpayable",
      "type": "function"
    },
    {
      "inputs": [
        {
          "internalType": "uint256",
          "name": "_productId",
          "type": "uint256"
        }
      ],
      "name": "getProduct",
      "outputs": [
        {
          "internalType": "string",
          "name": "",
          "type": "string"
        },
        {
          "internalType": "uint256",
          "name": "",
          "type": "uint256"
        },
        {
          "internalType": "address",
          "name": "",
          "type": "address"
        },
        {
          "internalType": "string",
          "name": "",
          "type": "string"
        },
        {
          "internalType": "string",
          "name": "",
          "type": "string"
        }
      ],
      "stateMutability": "view",
      "type": "function"
    },
    {
      "inputs": [],
      "name": "productCount",
      "outputs": [
        {
          "internalType": "uint256",
          "name": "",
          "type": "uint256"
        }
      ],
      "stateMutability": "view",
      "type": "function"
    },
    {
      "inputs": [
        {
          "internalType": "uint256",
          "name": "",
          "type": "uint256"
        }
      ],
      "name": "products",
      "outputs": [
        {
          "internalType": "string",
          "name": "name",
          "type": "string"
        },
        {
          "internalType": "uint256",
          "name": "productId",
          "type": "uint256"
        },
        {
          "internalType": "address",
          "name": "manufacturer",
          "type": "address"
        },
        {
          "internalType": "string",
          "name": "currentLocation",
          "type": "string"
        },
        {
          "internalType": "string",
          "name": "status",
          "type": "string"
        }
      ],
      "stateMutability": "view",
      "type": "function"
    },
    {
      "inputs": [
        {
          "internalType": "uint256",
          "name": "_productId",
          "type": "uint256"
        },
        {
          "internalType": "string",
          "name": "_newLocation",
          "type": "string"
        },
        {
          "internalType": "string",
          "name": "_status",
          "type": "string"
        }
      ],
      "name": "updateLocation",
      "outputs": [],
      "stateMutability": "nonpayable",
      "type": "function"
    }
  ],
  "bytecode": "0x608060405234801561001057600080fd5b506110aa806100206000396000f3fe608060405234801561001057600080fd5b50600436106100575760003560e01c80637acc0b201461005c578063b747288514610090578063b9db15b4146100ac578063ca2efb55146100e0578063e0f6ef87146100fc575b600080fd5b6100766004803603810190610071919061085a565b61011a565b604051610087959493929190610967565b60405180910390f35b6100aa60048036038101906100a59190610b04565b610308565b005b6100c660048036038101906100c1919061085a565b6103d6565b6040516100d7959493929190610967565b60405180910390f35b6100fa60048036038101906100f59190610b8f565b610693565b005b61010461080a565b6040516101119190610c07565b60405180910390f35b600060205280600052604060002060009150905080600001805461013d90610c51565b80601f016020809104026020016040519081016040528092919081815260200182805461016990610c51565b80156101b65780601f1061018b576101008083540402835291602001916101b6565b820191906000526020600020905b81548152906001019060200180831161019957829003601f168201915b5050505050908060010154908060020160009054906101000a900473ffffffffffffffffffffffffffffffffffffffff16908060030180546101f790610c51565b80601f016020809104026020016040519081016040528092919081815260200182805461022390610c51565b80156102705780601f1061024557610100808354040283529160200191610270565b820191906000526020600020905b81548152906001019060200180831161025357829003601f168201915b50505050509080600401805461028590610c51565b80601f01602080910402602001604051908101604052809291908181526020018280546102b190610c51565b80156102fe5780601f106102d3576101008083540402835291602001916102fe565b820191906000526020600020905b8154815290600101906020018083116102e157829003601f168201915b5050505050905085565b60008311801561031a57506001548311155b610359576040517f08c379a000000000000000000000000000000000000000000000000000000000815260040161035090610cce565b60405180910390fd5b60008060008581526020019081526020016000209050828160030190816103809190610e9a565b50818160040190816103929190610e9a565b507f9dc897d1baa9defd60f43d6be2f0b8a3ae8cd2eea726dd9de5a938e975676934848484336040516103c89493929190610f6c565b60405180910390a150505050565b60606000806060806000861180156103f057506001548611155b61042f576040517f08c379a000000000000000000000000000000000000000000000000000000000815260040161042690610cce565b60405180910390fd5b60008060008881526020019081526020016000206040518060a001604052908160008201805461045e90610c51565b80601f016020809104026020016040519081016040528092919081815260200182805461048a90610c51565b80156104d75780601f106104ac576101008083540402835291602001916104d7565b820191906000526020600020905b8154815290600101906020018083116104ba57829003601f168201915b50505050508152602001600182015481526020016002820160009054906101000a900473ffffffffffffffffffffffffffffffffffffffff1673ffffffffffffffffffffffffffffffffffffffff1673ffffffffffffffffffffffffffffffffffffffff16815260200160038201805461055090610c51565b80601f016020809104026020016040519081016040528092919081815260200182805461057c90610c51565b80156105c95780601f1061059e576101008083540402835291602001916105c9565b820191906000526020600020905b8154815290600101906020018083116105ac57829003601f168201915b505050505081526020016004820180546105e290610c51565b80601f016020809104026020016040519081016040528092919081815260200182805461060e90610c51565b801561065b5780601f106106305761010080835404028352916020019161065b565b820191906000526020600020905b81548152906001019060200180831161063e57829003601f168201915b505050505081525050905080600001518160200151826040015183606001518460800151955095509550955095505091939590929450565b600160008154809291906106a690610fee565b91905055506040518060a0016040528083815260200160015481526020013373ffffffffffffffffffffffffffffffffffffffff1681526020018281526020016040518060400160405280600c81526020017f4d616e7566616374757265640000000000000000000000000000000000000000815250815250600080600154815260200190815260200160002060008201518160000190816107489190610e9a565b506020820151816001015560408201518160020160006101000a81548173ffffffffffffffffffffffffffffffffffffffff021916908373ffffffffffffffffffffffffffffffffffffffff16021790555060608201518160030190816107af9190610e9a565b5060808201518160040190816107c59190610e9a565b509050507f8193aac6f424277fc758106db15a98f50eaf850bfd0b9178fbfa308e153b049560015483336040516107fe93929190611036565b60405180910390a15050565b60015481565b6000604051905090565b600080fd5b600080fd5b6000819050919050565b61083781610824565b811461084257600080fd5b50565b6000813590506108548161082e565b92915050565b6000602082840312156108705761086f61081a565b5b600061087e84828501610845565b91505092915050565b600081519050919050565b600082825260208201905092915050565b60005b838110156108c15780820151818401526020810190506108a6565b60008484015250505050565b6000601f19601f8301169050919050565b60006108e982610887565b6108f38185610892565b93506109038185602086016108a3565b61090c816108cd565b840191505092915050565b61092081610824565b82525050565b600073ffffffffffffffffffffffffffffffffffffffff82169050919050565b600061095182610926565b9050919050565b61096181610946565b82525050565b600060a082019050818103600083015261098181886108de565b90506109906020830187610917565b61099d6040830186610958565b81810360608301526109af81856108de565b905081810360808301526109c381846108de565b90509695505050505050565b600080fd5b600080fd5b7f4e487b7100000000000000000000000000000000000000000000000000000000600052604160045260246000fd5b610a11826108cd565b810181811067ffffffffffffffff82111715610a3057610a2f6109d9565b5b80604052505050565b6000610a43610810565b9050610a4f8282610a08565b919050565b600067ffffffffffffffff821115610a6f57610a6e6109d9565b5b610a78826108cd565b9050602081019050919050565b82818337600083830152505050565b6000610aa7610aa284610a54565b610a39565b905082815260208101848484011115610ac357610ac26109d4565b5b610ace848285610a85565b509392505050565b600082601f830112610aeb57610aea6109cf565b5b8135610afb848260208601610a94565b91505092915050565b600080600060608486031215610b1d57610b1c61081a565b5b6000610b2b86828701610845565b935050602084013567ffffffffffffffff811115610b4c57610b4b61081f565b5b610b5886828701610ad6565b925050604084013567ffffffffffffffff811115610b7957610b7861081f565b5b610b8586828701610ad6565b9150509250925092565b60008060408385031215610ba657610ba561081a565b5b600083013567ffffffffffffffff811115610bc457610bc361081f565b5b610bd085828601610ad6565b925050602083013567ffffffffffffffff811115610bf157610bf061081f565b5b610bfd85828601610ad6565b9150509250929050565b6000602082019050610c1c6000830184610917565b92915050565b7f4e487b7100000000000000000000000000000000000000000000000000000000600052602260045260246000fd5b60006002820490506001821680610c6957607f821691505b602082108103610c7c57610c7b610c22565b5b50919050565b7f50726f6475637420646f6573206e6f7420657869737400000000000000000000600082015250565b6000610cb8601683610892565b9150610cc382610c82565b602082019050919050565b60006020820190508181036000830152610ce781610cab565b9050919050565b60008190508160005260206000209050919050565b60006020601f8301049050919050565b600082821b905092915050565b600060088302610d507fffffffffffffffffffffffffffffffffffffffffffffffffffffffffffffffff82610d13565b610d5a8683610d13565b95508019841693508086168417925050509392505050565b6000819050919050565b6000610d97610d92610d8d84610824565b610d72565b610824565b9050919050565b6000819050919050565b610db183610d7c565b610dc5610dbd82610d9e565b848454610d20565b825550505050565b600090565b610dda610dcd565b610de5818484610da8565b505050565b5b81811015610e0957610dfe600082610dd2565b600181019050610deb565b5050565b601f821115610e4e57610e1f81610cee565b610e2884610d03565b81016020851015610e37578190505b610e4b610e4385610d03565b830182610dea565b50505b505050565b600082821c905092915050565b6000610e7160001984600802610e53565b1980831691505092915050565b6000610e8a8383610e60565b9150826002028217905092915050565b610ea382610887565b67ffffffffffffffff811115610ebc57610ebb6109d9565b5b610ec68254610c51565b610ed1828285610e0d565b600060209050601f831160018114610f045760008415610ef2578287015190505b610efc8582610e7e565b865550610f64565b601f198416610f1286610cee565b60005b82811015610f3a57848901518255600182019150602085019450602081019050610f15565b86831015610f575784890151610f53601f891682610e60565b8355505b6001600288020188555050505b505050505050565b6000608082019050610f816000830187610917565b8181036020830152610f9381866108de565b90508181036040830152610fa781856108de565b9050610fb66060830184610958565b95945050505050565b7f4e487b7100000000000000000000000000000000000000000000000000000000600052601160045260246000fd5b6000610ff982610824565b91507fffffffffffffffffffffffffffffffffffffffffffffffffffffffffffffffff820361102b5761102a610fbf565b5b600182019050919050565b600060608201905061104b6000830186610917565b818103602083015261105d81856108de565b905061106c6040830184610958565b94935050505056fea26469706673582212202c8940a7336261972628eb60d1021e7cfc1a70449a496d9f4dd3d09c7dddf8d664736f6c63430008180033",
  "linkReferences": {},
  "deployedLinkReferences": {}
}